{
  "contractName": "ProductMarketplace",
  "abi": [
    {
      "anonymous": false,
      "inputs": [
        {
          "indexed": false,
          "internalType": "uint256",
          "name": "id",
          "type": "uint256"
        },
        {
          "indexed": false,
          "internalType": "string",
          "name": "title",
          "type": "string"
        },
        {
          "indexed": false,
          "internalType": "string",
          "name": "description",
          "type": "string"
        },
        {
          "indexed": false,
          "internalType": "uint256",
          "name": "price",
          "type": "uint256"
        },
        {
          "indexed": false,
          "internalType": "address",
          "name": "seller",
          "type": "address"
        }
      ],
      "name": "ProductCreated",
      "type": "event"
    },
    {
      "inputs": [],
      "name": "productCount",
      "outputs": [
        {
          "internalType": "uint256",
          "name": "",
          "type": "uint256"
        }
      ],
      "stateMutability": "view",
      "type": "function"
    },
    {
      "inputs": [
        {
          "internalType": "uint256",
          "name": "",
          "type": "uint256"
        }
      ],
      "name": "products",
      "outputs": [
        {
          "internalType": "uint256",
          "name": "id",
          "type": "uint256"
        },
        {
          "internalType": "string",
          "name": "title",
          "type": "string"
        },
        {
          "internalType": "string",
          "name": "description",
          "type": "string"
        },
        {
          "internalType": "uint256",
          "name": "price",
          "type": "uint256"
        },
        {
          "internalType": "address payable",
          "name": "seller",
          "type": "address"
        },
        {
          "internalType": "bool",
          "name": "isSold",
          "type": "bool"
        }
      ],
      "stateMutability": "view",
      "type": "function"
    },
    {
      "inputs": [
        {
          "internalType": "string",
          "name": "_title",
          "type": "string"
        },
        {
          "internalType": "string",
          "name": "_description",
          "type": "string"
        },
        {
          "internalType": "uint256",
          "name": "_price",
          "type": "uint256"
        }
      ],
      "name": "createProduct",
      "outputs": [],
      "stateMutability": "nonpayable",
      "type": "function"
    }
  ],
  "bytecode": "0x60806040526000805534801561001457600080fd5b50610afb806100246000396000f3fe608060405234801561001057600080fd5b50600436106100415760003560e01c80637acc0b2014610046578063a14222091461007b578063e0f6ef8714610097575b600080fd5b610060600480360381019061005b9190610519565b6100b5565b6040516100729695949392919061064a565b60405180910390f35b610095600480360381019061009091906107ee565b61022e565b005b61009f610426565b6040516100ac9190610879565b60405180910390f35b60016020528060005260406000206000915090508060000154908060010180546100de906108c3565b80601f016020809104026020016040519081016040528092919081815260200182805461010a906108c3565b80156101575780601f1061012c57610100808354040283529160200191610157565b820191906000526020600020905b81548152906001019060200180831161013a57829003601f168201915b50505050509080600201805461016c906108c3565b80601f0160208091040260200160405190810160405280929190818152602001828054610198906108c3565b80156101e55780601f106101ba576101008083540402835291602001916101e5565b820191906000526020600020905b8154815290600101906020018083116101c857829003601f168201915b5050505050908060030154908060040160009054906101000a900473ffffffffffffffffffffffffffffffffffffffff16908060040160149054906101000a900460ff16905086565b6000835111610272576040517f08c379a000000000000000000000000000000000000000000000000000000000815260040161026990610940565b60405180910390fd5b600081116102b5576040517f08c379a00000000000000000000000000000000000000000000000000000000081526004016102ac906109ac565b60405180910390fd5b6000808154809291906102c7906109fb565b91905055506040518060c0016040528060005481526020018481526020018381526020018281526020013373ffffffffffffffffffffffffffffffffffffffff16815260200160001515815250600160008054815260200190815260200160002060008201518160000155602082015181600101908051906020019061034e92919061042c565b50604082015181600201908051906020019061036b92919061042c565b506060820151816003015560808201518160040160006101000a81548173ffffffffffffffffffffffffffffffffffffffff021916908373ffffffffffffffffffffffffffffffffffffffff16021790555060a08201518160040160146101000a81548160ff0219169083151502179055509050507f965ec429b52d166e7f39d678643fac1a6aba80af304381b7ec3f6326d5ebea5a60005484848433604051610419959493929190610a64565b60405180910390a1505050565b60005481565b828054610438906108c3565b90600052602060002090601f01602090048101928261045a57600085556104a1565b82601f1061047357805160ff19168380011785556104a1565b828001600101855582156104a1579182015b828111156104a0578251825591602001919060010190610485565b5b5090506104ae91906104b2565b5090565b5b808211156104cb5760008160009055506001016104b3565b5090565b6000604051905090565b600080fd5b600080fd5b6000819050919050565b6104f6816104e3565b811461050157600080fd5b50565b600081359050610513816104ed565b92915050565b60006020828403121561052f5761052e6104d9565b5b600061053d84828501610504565b91505092915050565b61054f816104e3565b82525050565b600081519050919050565b600082825260208201905092915050565b60005b8381101561058f578082015181840152602081019050610574565b8381111561059e576000848401525b50505050565b6000601f19601f8301169050919050565b60006105c082610555565b6105ca8185610560565b93506105da818560208601610571565b6105e3816105a4565b840191505092915050565b600073ffffffffffffffffffffffffffffffffffffffff82169050919050565b6000610619826105ee565b9050919050565b6106298161060e565b82525050565b60008115159050919050565b6106448161062f565b82525050565b600060c08201905061065f6000830189610546565b818103602083015261067181886105b5565b9050818103604083015261068581876105b5565b90506106946060830186610546565b6106a16080830185610620565b6106ae60a083018461063b565b979650505050505050565b600080fd5b600080fd5b7f4e487b7100000000000000000000000000000000000000000000000000000000600052604160045260246000fd5b6106fb826105a4565b810181811067ffffffffffffffff8211171561071a576107196106c3565b5b80604052505050565b600061072d6104cf565b905061073982826106f2565b919050565b600067ffffffffffffffff821115610759576107586106c3565b5b610762826105a4565b9050602081019050919050565b82818337600083830152505050565b600061079161078c8461073e565b610723565b9050828152602081018484840111156107ad576107ac6106be565b5b6107b884828561076f565b509392505050565b600082601f8301126107d5576107d46106b9565b5b81356107e584826020860161077e565b91505092915050565b600080600060608486031215610807576108066104d9565b5b600084013567ffffffffffffffff811115610825576108246104de565b5b610831868287016107c0565b935050602084013567ffffffffffffffff811115610852576108516104de565b5b61085e868287016107c0565b925050604061086f86828701610504565b9150509250925092565b600060208201905061088e6000830184610546565b92915050565b7f4e487b7100000000000000000000000000000000000000000000000000000000600052602260045260246000fd5b600060028204905060018216806108db57607f821691505b6020821081036108ee576108ed610894565b5b50919050565b7f5469746c652063616e6e6f7420626520656d7074790000000000000000000000600082015250565b600061092a601583610560565b9150610935826108f4565b602082019050919050565b600060208201905081810360008301526109598161091d565b9050919050565b7f5072696365206d7573742062652067726561746572207468616e207a65726f00600082015250565b6000610996601f83610560565b91506109a182610960565b602082019050919050565b600060208201905081810360008301526109c581610989565b9050919050565b7f4e487b7100000000000000000000000000000000000000000000000000000000600052601160045260246000fd5b6000610a06826104e3565b91507fffffffffffffffffffffffffffffffffffffffffffffffffffffffffffffffff8203610a3857610a376109cc565b5b600182019050919050565b6000610a4e826105ee565b9050919050565b610a5e81610a43565b82525050565b600060a082019050610a796000830188610546565b8181036020830152610a8b81876105b5565b90508181036040830152610a9f81866105b5565b9050610aae6060830185610546565b610abb6080830184610a55565b969550505050505056fea2646970667358221220c4f98eec872eff94cb1975b1770f2e0c2b6fdeb79b807dd3c032afbfe189ae2464736f6c634300080d0033",
  "immutableReferences": {},
  "source": "// SPDX-License-Identifier: MIT\r\npragma solidity ^0.8.0;\r\n\r\ncontract ProductMarketplace {\r\n    uint public productCount = 0;\r\n\r\n    struct Product {\r\n        uint id;\r\n        string title;\r\n        string description;\r\n        uint price;\r\n        address payable seller;\r\n        bool isSold;\r\n    }\r\n\r\n    mapping(uint => Product) public products;\r\n\r\n    event ProductCreated(\r\n        uint id,\r\n        string title,\r\n        string description,\r\n        uint price,\r\n        address seller\r\n    );\r\n\r\n    function createProduct(string memory _title, string memory _description, uint _price) public {\r\n        require(bytes(_title).length > 0, \"Title cannot be empty\");\r\n        require(_price > 0, \"Price must be greater than zero\");\r\n\r\n        productCount++;\r\n\r\n        products[productCount] = Product(\r\n            productCount,\r\n            _title,\r\n            _description,\r\n            _price,\r\n            payable(msg.sender),\r\n            false\r\n        );\r\n\r\n        emit ProductCreated(productCount, _title, _description, _price, msg.sender);\r\n    }\r\n}\r\n",
  "sourcePath": "C:\\Test\\marketplace-dapps\\contracts\\ProductMarketplace.sol",
  "compiler": {
    "name": "solc",
    "version": "0.8.13+commit.abaa5c0e.Emscripten.clang"
  },
  "schemaVersion": "3.4.16",
  "updatedAt": "2025-05-13T23:34:04.639Z",
  "devdoc": {
    "kind": "dev",
    "methods": {},
    "version": 1
  },
  "userdoc": {
    "kind": "user",
    "methods": {},
    "version": 1
  }
}